:020000040800F2
:1000000000040020092500085D250008D913000818
:10001000DD130008E1130008E513000800000000EC
:100020000000000000000000000000005D25000846
:100030005D250008000000005D2500085110000843
:100040005D2500085D2500085D2500085D25000888
:100050005D2500085D2500085D2500085D25000878
:100060005D2500085D2500085D2500085D25000868
:100070005D2500085D2500085D2500085D25000858
:100080005D2500085D250008000000005D250008D2
:100090005D2500085D2500085D2500085D25000838
:1000A0005D2500085D2500085D2500085D25000828
:1000B00009140008000000005D2500080000000091
:1000C0005D250008000000005D2500085D25000892
:1000D0005D2500085D2500085D2500080000000082
:1000E00000000000000000005D2500080000000086
:1000F0000000000000000000000000000000000000
:100100005D25000800000000000000005D250008DB
:1001100010B5054C237833B9044B13B10448AFF341
:1001200000800123237010BD80000020000000002B
:100130001001000808B5064B1BB106480649AFF38D
:1001400000800648036813B1054B03B1984708BD0A
:100150000000000010010008840000208000002042
:100160000000000081F0004102E000BF83F0004386
:1001700030B54FEA41044FEA430594EA050F08BF42
:1001800090EA020F1FBF54EA000C55EA020C7FEA06
:10019000645C7FEA655C00F0E2804FEA5454D4EB83
:1001A0005555B8BF6D420CDD2C4480EA020281EA4D
:1001B000030382EA000083EA010180EA020281EA85
:1001C0000303362D88BF30BD11F0004F4FEA0131D7
:1001D0004FF4801C4CEA113102D0404261EB4101E6
:1001E00013F0004F4FEA03334CEA133302D052426C
:1001F00063EB430394EA050F00F0A780A4F1010428
:10020000D5F1200E0DDB02FA0EFC22FA05F2801861
:1002100041F1000103FA0EF2801843FA05F3594147
:100220000EE0A5F120050EF1200E012A03FA0EFCC6
:1002300028BF4CF0020C43FA05F3C01851EBE371F0
:1002400001F0004507D54FF0000EDCF1000C7EEB0D
:1002500000006EEB0101B1F5801F1BD3B1F5001F4B
:100260000CD349085FEA30004FEA3C0C04F101046A
:100270004FEA445212F5800F80F09A80BCF1004F93
:1002800008BF5FEA500C50F1000041EB045141EA15
:10029000050130BD5FEA4C0C404141EB010111F416
:1002A000801FA4F10104E9D191F0000F04BF0146C1
:1002B0000020B1FA81F308BF2033A3F10B03B3F19F
:1002C00020020CDA0C3208DD02F1140CC2F10C022F
:1002D00001FA0CF021FA02F10CE002F11402D8BF8D
:1002E000C2F1200C01FA02F120FA0CFCDCBF41EA59
:1002F0000C019040E41AA2BF01EB0451294330BD28
:100300006FEA04041F3C1CDA0C340EDC04F1140404
:10031000C4F1200220FA04F001FA02F340EA0300DB
:1003200021FA04F345EA030130BDC4F10C04C4F121
:10033000200220FA02F001FA04F340EA0300294601
:1003400030BD21FA04F0294630BD94F0000F83F44B
:10035000801306BF81F480110134013D4EE77FEA2E
:10036000645C18BF7FEA655C29D094EA050F08BF7A
:1003700090EA020F05D054EA000C04BF194610465B
:1003800030BD91EA030F1EBF0021002030BD5FEA9F
:10039000545C05D14000494128BF41F0004130BDC7
:1003A00014F580043CBF01F5801130BD01F000451B
:1003B00045F0FE4141F470014FF0000030BD7FEA8E
:1003C000645C1ABF194610467FEA655C1CBF0B4689
:1003D000024650EA013406BF52EA033591EA030FA0
:1003E00041F4002130BD00BF90F0000F04BF002198
:1003F000704730B54FF4806404F132044FF00005CB
:100400004FF0000150E700BF90F0000F04BF002143
:10041000704730B54FF4806404F1320410F00045A9
:1004200048BF40424FF000013EE700BF42004FEAA4
:10043000E2014FEA31014FEA02701FBF12F07F4321
:1004400093F07F4F81F06051704792F0000F14BF1E
:1004500093F07F4F704730B54FF4607401F0004562
:1004600021F0004120E700BF50EA010208BF7047B9
:1004700030B54FF000050AE050EA010208BF7047AE
:1004800030B511F0004502D5404261EB41014FF417
:10049000806404F132045FEA915C3FF4DCAE4FF01B
:1004A00003025FEADC0C18BF03325FEADC0C18BF02
:1004B000033202EBDC02C2F1200300FA03FC20FA53
:1004C00002F001FA03FE40EA0E0021FA02F11444A0
:1004D000C1E600BF70B54FF0FF0C4CF4E06C1CEAB5
:1004E00011541DBF1CEA135594EA0C0F95EA0C0F2A
:1004F00000F0DEF82C4481EA030621EA4C5123EA9D
:100500004C5350EA013518BF52EA033541F48011CB
:1005100043F4801338D0A0FB02CE4FF00005E1FB7E
:1005200002E506F00042E0FB03E54FF00006E1FBC8
:1005300003569CF0000F18BF4EF0010EA4F1FF040B
:10054000B6F5007F64F5407404D25FEA4E0E6D414B
:1005500046EB060642EAC62141EA55514FEAC5205C
:1005600040EA5E504FEACE2EB4F1FD0C88BFBCF5D8
:10057000E06F1ED8BEF1004F08BF5FEA500E50F189
:10058000000041EB045170BD06F0004646EA01014F
:1005900040EA020081EA0301B4EB5C04C2BFD4EB81
:1005A0000C0541EA045170BD41F480114FF0000E7A
:1005B000013C00F3AB8014F1360FDEBF002001F0E8
:1005C000004170BDC4F10004203C35DA0C341BDC62
:1005D00004F11404C4F1200500FA05F320FA04F034
:1005E00001FA05F240EA020001F0004221F0004168
:1005F00010EBD37021FA04F642EB06015EEA430EDB
:1006000008BF20EAD37070BDC4F10C04C4F120050A
:1006100000FA04F320FA05F001FA04F240EA0200BD
:1006200001F0004110EBD37041F100015EEA430E8E
:1006300008BF20EAD37070BDC4F1200500FA05F2AE
:100640004EEA020E20FA04F301FA05F243EA02032D
:1006500021FA04F001F0004121FA04F220EA02003C
:1006600000EBD3705EEA430E08BF20EAD37070BD82
:1006700094F0000F0FD101F00046400041EB010162
:1006800011F4801F08BF013CF7D041EA060195F044
:10069000000F18BF704703F00046520043EB0303FE
:1006A00013F4801F08BF013DF7D043EA06037047EB
:1006B00094EA0C0F0CEA135518BF95EA0C0F0CD0F6
:1006C00050EA410618BF52EA4306D1D181EA03013C
:1006D00001F000414FF0000070BD50EA410606BF36
:1006E0001046194652EA430619D094EA0C0F02D17B
:1006F00050EA013613D195EA0C0F05D152EA0336C0
:100700001CBF104619460AD181EA030101F00041DD
:1007100041F0FE4141F470014FF0000070BD41F026
:10072000FE4141F4780170BD70B54FF0FF0C4CF400
:10073000E06C1CEA11541DBF1CEA135594EA0C0F1F
:1007400095EA0C0F00F0A7F8A4EB050481EA030E6C
:1007500052EA03354FEA013100F088804FEA033353
:100760004FF0805545EA131343EA12634FEA022221
:1007700045EA111545EA10654FEA00260EF00041E2
:100780009D4208BF964244F1FD0404F5407402D234
:100790005B084FEA3202B61A65EB03055B084FEAC5
:1007A00032024FF480104FF4002CB6EB020E75EBC2
:1007B000030E22BFB61A754640EA0C005B084FEAEA
:1007C0003202B6EB020E75EB030E22BFB61A754667
:1007D00040EA5C005B084FEA3202B6EB020E75EBB2
:1007E000030E22BFB61A754640EA9C005B084FEA2A
:1007F0003202B6EB020E75EB030E22BFB61A754637
:1008000040EADC0055EA060E18D04FEA051545EA25
:1008100016754FEA06164FEAC30343EA52734FEACE
:10082000C2025FEA1C1CC0D111F4801F0BD141EA47
:1008300000014FF000004FF0004CB6E711F4801FAC
:1008400004BF01430020B4F1FD0C88BFBCF5E06F8C
:100850003FF6AFAEB5EB030C04BFB6EB020C5FEA9C
:10086000500C50F1000041EB045170BD0EF0004EF1
:100870004EEA113114EB5C04C2BFD4EB0C0541EA23
:10088000045170BD41F480114FF0000E013C90E620
:1008900045EA060E8DE60CEA135594EA0C0F08BFE4
:1008A00095EA0C0F3FF43BAF94EA0C0F0AD150EAE3
:1008B00001347FF434AF95EA0C0F7FF425AF104676
:1008C00019462CE795EA0C0F06D152EA03353FF49E
:1008D000FDAE1046194622E750EA410618BF52EA1B
:1008E00043067FF4C5AE50EA41047FF40DAF52EAEF
:1008F00043057FF4EBAE12E74FF0FF3C06E000BF8C
:100900004FF0010C02E000BF4FF0010C4DF804CD98
:100910004FEA410C7FEA6C5C4FEA430C18BF7FEA58
:100920006C5C1BD001B050EA410C0CBF52EA430C86
:1009300091EA030F02BF90EA020F0020704710F106
:10094000000F91EA030F58BF994208BF90422CBF95
:10095000D8176FEAE37040F0010070474FEA410C8E
:100960007FEA6C5C02D150EA013C07D14FEA430CAC
:100970007FEA6C5CD6D152EA033CD3D05DF8040B1D
:10098000704700BF8446104662468C46194663464F
:1009900000E000BF01B5FFF7B7FF002848BF10F126
:1009A000000F01BD4DF808EDFFF7F4FF0CBF01206B
:1009B00000205DF808FB00BF4DF808EDFFF7EAFFE7
:1009C00034BF012000205DF808FB00BF4DF808EDA2
:1009D000FFF7E0FF94BF012000205DF808FB00BF97
:1009E0004DF808EDFFF7CEFF94BF012000205DF821
:1009F00008FB00BF4DF808EDFFF7C4FF34BF01202E
:100A000000205DF808FB00BF4FEA4102B2F1E0436D
:100A100024BFB3F5001CDCF1FE5C0DD901F0004CE5
:100A20004FEAC0024CEA5070B2F1004F40EB830035
:100A300008BF20F00100704711F0804F21D113F161
:100A40003872BCBF01F00040704741F480114FEA9A
:100A50005252C2F11802C2F1200C10FA0CF320FA23
:100A600002F018BF40F001004FEAC1234FEAD32340
:100A700003FA0CFC40EA0C0023FA02F34FEA4303AA
:100A8000CCE77FEA625307D150EA01331EBF4FF033
:100A9000FE4040F44000704701F0004040F0FE404E
:100AA00040F40000704700BF80F0004002E000BF4B
:100AB00081F0004142001FBF5FEA410392EA030F49
:100AC0007FEA226C7FEA236C6AD04FEA1262D2EB93
:100AD0001363C1BFD218414048404140B8BF5B4298
:100AE000192B88BF704710F0004F40F4000020F031
:100AF0007F4018BF404211F0004F41F4000121F047
:100B00007F4118BF494292EA030F3FD0A2F1010290
:100B100041FA03FC10EB0C00C3F1200301FA03F1CE
:100B200000F0004302D5494260EB4000B0F5000FF1
:100B300013D3B0F1807F06D340084FEA310102F1B0
:100B40000102FE2A51D2B1F1004F40EBC25008BF62
:100B500020F0010040EA03007047490040EB00002C
:100B600010F4000FA2F10102EDD1B0FA80FCACF15B
:100B7000080CB2EB0C0200FA0CF0AABF00EBC2505A
:100B800052421843BCBFD0401843704792F0000F48
:100B900081F4000106BF80F400000132013BB5E79B
:100BA0004FEA41037FEA226C18BF7FEA236C21D011
:100BB00092EA030F04D092F0000F08BF0846704776
:100BC00090EA010F1CBF0020704712F07F4F04D144
:100BD000400028BF40F00040704712F100723CBF57
:100BE00000F50000704700F0004343F0FE4040F481
:100BF000000070477FEA226216BF08467FEA23633F
:100C00000146420206BF5FEA412390EA010F40F429
:100C1000800070474FF0000304E000BF10F0004375
:100C200048BF40425FEA000C08BF704743F096435C
:100C300001464FF000001CE050EA010208BF704777
:100C40004FF000030AE000BF50EA010208BF7047FE
:100C500011F0004302D5404261EB41015FEA010C13
:100C600002BF84460146002043F0B64308BFA3F10B
:100C70008053A3F50003BCFA8CF2083AA3EBC253ED
:100C800010DB01FA02FC634400FA02FCC2F120020C
:100C9000BCF1004F20FA02F243EB020008BF20F043
:100CA0000100704702F1200201FA02FCC2F12002A9
:100CB00050EA4C0021FA02F243EB020008BF20EA9E
:100CC000DC7070474FF0FF0C1CEAD0521EBF1CEACC
:100CD000D15392EA0C0F93EA0C0F6FD01A4480EABA
:100CE000010C400218BF5FEA41211ED04FF00063A3
:100CF00043EA501043EA5111A0FB01310CF00040CF
:100D0000B1F5000F3EBF490041EAD3715B0040EAF4
:100D1000010062F17F02FD2A1DD8B3F1004F40EBC4
:100D2000C25008BF20F00100704790F0000F0CF097
:100D3000004C08BF49024CEA502040EA51207F3A5B
:100D4000C2BFD2F1FF0340EAC250704740F4000036
:100D50004FF00003013A5DDC12F1190FDCBF00F027
:100D600000407047C2F10002410021FA02F1C2F1D5
:100D7000200200FA02FC5FEA310040F1000053EA71
:100D80004C0308BF20EADC70704792F0000F00F0BF
:100D9000004C02BF400010F4000F013AF9D040EAC5
:100DA0000C0093F0000F01F0004C02BF490011F459
:100DB000000F013BF9D041EA0C018FE70CEAD15357
:100DC00092EA0C0F18BF93EA0C0F0AD030F0004CD7
:100DD00018BF31F0004CD8D180EA010000F000408B
:100DE000704790F0000F17BF90F0004F084691F049
:100DF000000F91F0004F14D092EA0C0F01D1420283
:100E00000FD193EA0C0F03D14B0218BF084608D14B
:100E100080EA010000F0004040F0FE4040F4000095
:100E2000704740F0FE4040F4400070474FF0FF0C28
:100E30001CEAD0521EBF1CEAD15392EA0C0F93EA6F
:100E40000C0F69D0A2EB030280EA010C49024FEAC1
:100E5000402037D04FF0805343EA111143EA10137A
:100E60000CF000408B4238BF5B0042F17D024FF432
:100E7000000C8B4224BF5B1A40EA0C00B3EB510F0D
:100E800024BFA3EB510340EA5C00B3EB910F24BFF6
:100E9000A3EB910340EA9C00B3EBD10F24BFA3EB7B
:100EA000D10340EADC001B0118BF5FEA1C1CE0D143
:100EB000FD2A3FF650AF8B4240EBC25008BF20F0F6
:100EC000010070470CF0004C4CEA50207F32C2BF4A
:100ED000D2F1FF0340EAC250704740F400004FF0E7
:100EE0000003013A37E792F0000F00F0004C02BF18
:100EF000400010F4000F013AF9D040EA0C0093F0E2
:100F0000000F01F0004C02BF490011F4000F013B3B
:100F1000F9D041EA0C0195E70CEAD15392EA0C0FA3
:100F200008D142027FF47DAF93EA0C0F7FF470AFDB
:100F3000084676E793EA0C0F04D14B023FF44CAF1E
:100F400008466EE730F0004C18BF31F0004CCAD1B3
:100F500030F000427FF45CAF31F000437FF43CAFEF
:100F60005FE700BF4FF0FF3C06E000BF4FF0010C11
:100F700002E000BF4FF0010C4DF804CD4FEA4002F3
:100F80004FEA41037FEA226C18BF7FEA236C11D03D
:100F900001B052EA530C18BF90EA010F58BFB2EBF0
:100FA000030088BFC81738BF6FEAE17018BF40F070
:100FB000010070477FEA226C02D15FEA402C05D124
:100FC0007FEA236CE4D15FEA412CE1D05DF8040BA9
:100FD000704700BF844608466146FFE70FB5FFF73C
:100FE000C9FF002848BF10F1000F0FBD4DF808EDF4
:100FF000FFF7F4FF0CBF012000205DF808FB00BFE5
:101000004DF808EDFFF7EAFF34BF012000205DF83E
:1010100008FB00BF4DF808EDFFF7E0FF94BF01208B
:1010200000205DF808FB00BF4DF808EDFFF7D2FF88
:1010300094BF012000205DF808FB00BF4DF808EDCB
:10104000FFF7C8FF34BF012000205DF808FB00BF98
:10105000704700BF054B064A5A60F021054A82F8E6
:10106000231000229A6003221A60704710E000E00B
:101070007F8D5B0000ED00E00A4B59689B680A4ACF
:101080001068834201D2C01A01E0C91A0844064A16
:101090001360064BA3FB0020054B1A6802EB90007F
:1010A0001860704710E000E0B8000020ABAAAAAAC0
:1010B000B400002008B5FFF7DFFF08BD82B00001D3
:1010C0000190019B5A1E0192002BFAD102B0704789
:1010D00010B5002001F054F8012001F059F8012466
:1010E000204601F071F90028FAD0002001F07EF8C6
:1010F00000204FF4201101F05BF8012001F066F8A8
:101100001924204601F060F90028FAD0022001F0ED
:101110006DF8084A536803F00C03082BFAD100203D
:1011200001F06EF8002001F075F8002001F07CF865
:1011300010BD00BF00100240F8B50D461746002450
:1011400005E06E1CAFF30080287001343546BC42C8
:10115000F7DB3846F8BD00BF70B51646002405E041
:101160004D1C0878AFF3008001342946B442F7DB08
:10117000304670BD08B50B4B1B6813B90A4A094BC2
:101180001A60084B1B6818446A46904206D901F061
:10119000E7F90C2303604FF0FF3008BD014A1060EF
:1011A000184608BD9C000020F80000204FF0FF30DA
:1011B000704700BF4FF400534B600020704700BFE2
:1011C00001207047002070472DE9F04182B04FF4B4
:1011D0008C00012101F0DCF801238DF804304FF080
:1011E00003088DF8058000258DF806508DF807500E
:1011F00002AC44F8083D4FF09040694600F066FEAE
:101200004FF4007300931C4E3046694600F05EFEBA
:101210004FF4807300933046694600F057FE202358
:1012200000933046694600F051FE10270097304683
:10123000694600F04BFE8DF804508DF805808DF85E
:10124000065000974FF09040694600F03FFE4FF483
:10125000804300930948694600F038FE02238DF868
:101260000630082300934FF09040694600F02EFEB0
:1012700002B0BDE8F08100BF00040048000800484B
:10128000F8B5FFF725FF42F21070FFF717FFFFF7E1
:101290009BFF00F0C7F84A4801F070F900F00AF926
:1012A000FFF7D8FE00F07EFB0026464C4FF4807717
:1012B00035462EE0204639462A4600F059FE4FF0CA
:1012C000904001210A4600F053FE47F23050FFF7EC
:1012D000F5FE20464FF40071012200F049FE4FF068
:1012E000904001212A4600F043FE47F23050FFF7BC
:1012F000E5FE20463946012200F03AFE20464FF432
:1013000000712A4600F034FE47F23050FFF7D6FE57
:101310000136052ECEDD2B484FF48071002200F0FF
:1013200027FE00F079FB10B9274801F027F94CF2AD
:101330005030FFF7C3FE254B1B6813B1244801F062
:101340001DF94CF25030FFF7B9FE4FF090400121EB
:101350000A4600F00DFE4FF090441E4F194E2046F5
:10136000082100F0FDFD0028F9D02046102100F0F2
:10137000F7FD054638464FF4804100F0F1FD284363
:1013800010F0FF0F0AD030462021012200F0F0FDBE
:1013900030461021012200F0EBFD09E0304620210B
:1013A000002200F0E5FD30461021002200F0E0FDB3
:1013B00000F03EFB4FF4FA70FFF780FECFE700BF6E
:1013C000A43A000800040048B03A0008BC0000201D
:1013D000B83A000800080048704700BF704700BFD7
:1013E000704700BF704700BF0022054B1A704FF0D6
:1013F0008052044B1A60024A1378002BFCD07047CD
:10140000A000002000E100E00122044B1A704FF020
:101410008052034BC3F88020704700BFA00000201B
:1014200000E100E010B588B04FF40030012100F079
:10143000AFFF4FF40030012100F0B8FF4FF09040B3
:101440000221012200F09AFD4FF090400321012279
:1014500000F094FD0423069302238DF81C3003232F
:101460008DF81D3000248DF81E408DF81F404FF080
:10147000904006A900F02AFD4FF4E1330093019457
:1014800002940394059408230493084C204669466B
:1014900000F0B8FF2046012101F004F8204604497D
:1014A000012201F00FF808B010BD00BF0044004059
:1014B00006010600F0B587B04FF40010012100F0DE
:1014C00075FFC023049300238DF8143003238DF897
:1014D000153001238DF816308DF817304E4C20460C
:1014E00004A900F0F3FC0A20FFF7E8FD2046802164
:1014F00000F036FD08B1002600E001260A20FFF7C3
:10150000DDFD8024049402238DF81730424D2846D7
:1015100004A900F0DBFC0A20FFF7D0FD2846214695
:1015200000F01EFD012800D10126002E33D08023BB
:10153000049301248DF81740374D284604A900F084
:10154000C5FC402304938DF814408DF817402846BD
:1015500004A900F0BBFC0A20FFF7B0FD00252E4CCB
:1015600040262F4615E0204631463A4600F000FD61
:101570001920FFF7A3FD20463146012200F0F8FCB8
:101580000520FFF79BFD2046802100F0E9FC10B903
:101590000135112DE7DDC023049302238DF81430AB
:1015A00003238DF8153001248DF816408DF817406F
:1015B000194D284604A900F089FC28460621224638
:1015C00000F0DCFC28460721224600F0D7FC00266C
:1015D000ADF804604BF6FF73ADF806300F4B029385
:1015E0004FF48043ADF80C302423ADF80E300C4D91
:1015F000284601A900F0DAFC2846214600F046FD05
:101600002846314600F06CFD28464FF2FF7100F08D
:101610007BFD07B0F0BD00BF00040048801A060043
:101620000054004070B50022214B1A60214E4FF447
:1016300000351C4601E0013323603046294600F0A6
:1016400083FD20B1236841F69B729342F3D9194878
:10165000012100F029FD174E154C41F69B7502E063
:1016600023680133236021683046A9428CBF0021E2
:10167000012100F059FD0028F2D00E4C20460E4901
:1016800000F062FD2046D02100F038FD26460B4DCB
:10169000074C01E0013323603046294600F044FD49
:1016A00020B9236841F69B729342F3D970BD00BF05
:1016B000A400002000540040010000108200070038
:1016C00070B506460D46FFF7ADFF1B4C2046F1B244
:1016D00000F014FD2046E9B200F010FD2646174D3B
:1016E000174C01E0013323603046294600F01CFD11
:1016F00020B9236841F69B729342F3D90E48012129
:1017000000F0E0FC0C490E4A41F69B7001E0013309
:1017100013600B8803F400739BB213B11368834208
:10172000F5D9074B1A6841F69B739A4203D9054BCA
:101730001A6801321A6070BD00540040840007002E
:10174000A4000020BC00002070B50446FFF76AFF2B
:101750003948E1B200F0D2FC374E384D384C01E048
:10176000013323603046294600F0DEFC20B92368AF
:1017700041F69B729342F3D92F48012100F094FC6B
:101780002D4E2F4C41F69B7502E0236801332360F8
:1017900021683046A9428CBF0021012100F0C4FC21
:1017A0000028F2D02448D12100F0A8FC224E254D7B
:1017B000234C01E0013323603046294600F0B4FC9D
:1017C00040B9236841F69B729342F3D902E001339A
:1017D000236002E0184E1C4D194C3046294600F09B
:1017E000A3FC20B9236841F69B729342EFD9124DB6
:1017F000284600F085FC04462846012100F062FCE2
:1018000029460F4A41F69B7001E0013313600B88B3
:1018100003F400739BB213B113688342F5D9084BEC
:101820001A6841F69B739A4203D9084B1A68013231
:101830001A60204670BD00BF0054004084000700BD
:10184000A40000200200030040000300BC000020B0
:101850002DE9F047044689469046FFF7E3FE4A48E3
:10186000E1B200F04BFC484E484D494C01E00133D9
:1018700023603046294600F057FC20B9236841F622
:101880009B729342F3D94048012100F00DFC3E4E7B
:10189000404D3F4C01E0013323603046294600F0C3
:1018A00043FC20B9236841F69B729342F3D9364C2E
:1018B0002046D12100F022FC2046012100F010FC3E
:1018C0002646354D324C01E001332360304629462F
:1018D00000F02AFC38BB236841F69B729342F3D98F
:1018E0004FF0000A574621E0013400E0002428466A
:1018F000314600F019FC10B9B4F5006FF4DBB4F513
:10190000006F01DB4FF0010A284600F0F9FB49F8AF
:101910002700013708F1FF33BB4209D128460021D7
:1019200000F0DEFB04E04FF0000A57461B4E164D58
:101930004745DBDB1448012100F0C4FB1249144A7F
:1019400041F69B7001E0013313600B8803F40073D0
:101950009BB213B113688342F5D90D4B1A6841F657
:101960009B739A4202D8BAF1000F05D00C4B1A684B
:1019700001321A60012400E000240348002100F035
:10198000AFFB2046BDE8F08700540040840007000C
:10199000A400002001000300020003004000030037
:1019A000BC00002008B57F200021FFF789FE06203B
:1019B0008021FFF785FE05203021FFF781FE0620FC
:1019C0000521FFF77DFE07200021FFF779FE7F202C
:1019D0002021FFF775FE00200146FFF771FE012070
:1019E0003D21FFF76DFE02200021FFF769FE102068
:1019F0000021FFF765FE11200021FFF761FE142092
:101A00003921FFF75DFE15200021FFF759FE49F649
:101A10004040FFF753FB08BD08B50020FFF794FED8
:101A2000A02814BF0020012008BD00BF0000000056
:101A30002DE9F04F93B07F200021FFF741FE2D20CC
:101A400004A90E22FFF704FF059B049A03EB022072
:101A500000B2FFF7E3F80290079B069A03EB02201F
:101A600000B2FFF7DBF80190099B089A03EB022014
:101A700000B2FFF7D3F803900023144907E012A83F
:101A800000EB830252F8442C41F823200133022B4F
:101A9000F5DD0B9B0A9A03EB022000B2FFF7BEF8BC
:101AA00002900D9B0C9A03EB022000B2FFF7B6F8F0
:101AB00001900F9B0E9A03EB022000B2FFF7AEF8E5
:101AC00003900024024F034E13E000BFC400002027
:101AD00058A08B3AD400002012AB03EB840555F8D4
:101AE000440C3946FFF7EEF845F8440C46F824005C
:101AF0000134022CF0DDA44CD4F804802768384669
:101B00003946FFF7DFF80546A66830463146FFF74D
:101B1000D9F801462846FEF7CDFF04462046FEF7D9
:101B200085FC01F087FD04460D464046FEF77EFC2D
:101B300022462B46FEF7F8FD01F0CEFB8AA3D3E93F
:101B40000023FEF7C7FCFEF75FFF814607F1004068
:101B5000FEF76CFC04460D463046FEF767FC024675
:101B60000B462046294601F063FD7FA3D3E90023FD
:101B7000FEF7B0FCFEF748FF8046844C2068FEF775
:101B800055FC7BA3D3E90023FEF7A4FCFEF73CFF42
:101B900006466068FEF74AFC75A3D3E90023FEF70A
:101BA00099FCFEF731FF8246FFF784FAFFF732F81F
:101BB0000446774D2868FFF72DF801462046FEF7CA
:101BC00077FF7449FFF77EF80446FFF773FA286041
:101BD00030462146FFF776F805466F4E3168FEF72E
:101BE00069FF0746306050462146FFF76BF8834691
:101BF0006A4C2168FEF75EFF06462060DFF8B0A160
:101C00002846DAF80010FEF755FFFEF70FFC5AA33E
:101C1000D3E90023FEF75EFC04460D464846FEF776
:101C200005FC57A3D3E90023FEF754FC02460B46FC
:101C300020462946FEF79CFAFEF7E6FE8146CAF8E2
:101C40000000DFF870A15846DAF80010FEF732FF06
:101C5000FEF7ECFB48A3D3E90023FEF73BFC044668
:101C60000D464046FEF7E2FB45A3D3E90023FEF70D
:101C700031FC02460B4620462946FEF779FAFEF76C
:101C8000C3FE0446CAF8000038464549FFF7B8F9D4
:101C900020B938464349FFF7D1F910B13E4BC3F89C
:101CA000009030463E49FFF7ABF920B930463D4938
:101CB000FFF7C4F908B1394B1C604FF09040102178
:101CC00000F04EF9064638484FF4804100F048F9DC
:101CD00046EA4000C6B2354C20460F2100F0EEFB2C
:101CE000FFF782FB324D2046297800F0E7FBFFF733
:101CF0007BFB2046697800F0E1FBFFF775FB20468F
:101D0000A97800F0DBFBFFF76FFB2046E97800F0D5
:101D1000D5FBFFF769FB274D2046297800F0CEFB65
:101D2000FFF762FB2046697800F0C8FBFFF75CFB19
:101D30002046A97800F0C2FBFFF756FB2046E97861
:101D400000F0BCFBFFF750FB2046314600F0B6FB2D
:101D5000FFF74AFB2046002100F0B0FBFFF744FBF1
:101D600013B0BDE8F08F00BF00000020DCA54C40A0
:101D700071424A9E65447F3FCDCCCCCCCCCCEC3F6D
:101D80009A9999999999B93FC4000020D4000020EC
:101D9000A80000206F12833AE0000020D00000204D
:101DA000000034C3000034430008004800440040F1
:101DB000C0000020E400002082B0002301930093C3
:101DC00003F1804303F504331A6842F480321A6049
:101DD0001A46136803F400330093019B0133019307
:101DE000009B1BB9019BB3F5006FF2D11B4B1B6825
:101DF00013F4003F02D00123009301E0002300937D
:101E0000009B012B28D1154B5A685A605A685A60BA
:101E10005A685A605A6822F0036222F470225A60AB
:101E20005A6842F488125A601A6842F080721A6046
:101E30001A46136813F0007FFBD0084B5A6822F053
:101E400003025A605A6842F002025A601A46536806
:101E500003F00C03082BFAD102B0704700100240C7
:101E600008B5FFF7A9FF08BD08B5164B1A6842F080
:101E700001021A605968144A0A405A601A6822F02E
:101E8000847222F480321A601A6822F480221A6066
:101E90005A6822F0036222F470225A60DA6A22F051
:101EA0000F02DA621A6B22F4A17222F001021A63A5
:101EB0005A6B22F001025A6300229A60FFF7D0FFAA
:101EC00008BD00BF001002400C003F08F0B4002322
:101ED0000324012740E00A68DA4012F0010F3AD0EB
:101EE0000A79013AD2B2012A1BD885685A0004FA4D
:101EF00002F625EA0605856085684E7906FA02F243
:101F00002A4382608588ADB29AB207FA02F625EAC2
:101F10000605858085888E7906FA02F22A4392B2F8
:101F20008280C5689AB2520004FA02F225EA0202DF
:101F3000C260C668CD795A0095403543C5600568D2
:101F400004FA02F625EA0605056005680E7906FA28
:101F500002F22A43026001330F2BBCD9F0BC704758
:101F6000038A194201D0012070470020704700BF4A
:101F70000AB1816170470185704700BF30B401F03C
:101F800007039B009A40C908083150F821400F25EB
:101F900005FA03F324EA030340F8213050F8213016
:101FA0001A4340F8212030BC704700BF70B588B09C
:101FB00004460E46038823F001031B041B0C038018
:101FC000858825F03F052D042D0C01A800F036F979
:101FD00003992B4BA3FB01039B0C3F2B00D93F2301
:101FE0001D43A5807268274882420FD85200B1FB7A
:101FF000F2F292B2032A00D80422A2833E2B02D925
:102000003F2323842AE00133238427E075884BF69D
:10201000FF70854205D102EB4202B1FBF2F292B2AF
:1020200008E002EB820202EB8202B1FBF2F292B212
:1020300042F48042C2F30B0109B942F0010242F4BA
:1020400000424FF4967101FB03F30F4981FB03013A
:10205000DB17C3EBA11301339BB22384A283238834
:102060009BB223F4816323F002033288134343F4C9
:1020700080632380328973891343238108B070BD44
:1020800083DE1B43A0860100D34D621029B1038873
:102090009BB243F0010303807047038823F00103E0
:1020A0001B041B0C0380704729B103889BB243F4C7
:1020B000807303807047038823F480731B041B0C18
:1020C0000380704729B103889BB243F400730380F7
:1020D0007047038823F400731B041B0C03807047B4
:1020E00029B103889BB243F480630380704703885F
:1020F00023F480631B041B0C03807047018270472C
:10210000008AC0B2704700BFB1F5006F05D10388E7
:102110009BB243F4006303807047038823F4006399
:102120001B041B0C03807047838A9BB2028B43EA1B
:10213000024323F07F430B408B4203D1838A038BFE
:10214000012070470020704782B000230193009364
:1021500000900B0F019321F07F41019B1BB1009B6D
:102160001433009303E0090C009B18330093009B89
:102170001B680B4201D0012000E0002002B0704734
:10218000024B00221A701870704700BF0210024004
:1021900028B1064B1A6842F001021A607047034BDF
:1021A0001A6822F001021A60704700BF0010024056
:1021B000054B5A6822F0036222F450225A605A6892
:1021C00001430A435A6070470010024028B1064B91
:1021D0001A6842F080721A607047034B1A6822F046
:1021E00080721A60704700BF00100240034B5A68AB
:1021F00022F0030210435860704700BF00100240F5
:10220000034B5A6822F0F00210435860704700BF39
:1022100000100240034B5A6822F4E06210435860F9
:10222000704700BF00100240034B5A6822F460520E
:1022300010435860704700BF0010024030B44D4B4F
:102240005B6803F00C03042B05D0082B06D02BBBD6
:10225000494B036024E0484B036021E0454B59683B
:102260005A68C2F3C062C2EB0212C1F383410A444E
:1022700002325B6813F4803F04D1404B03FB02F24F
:1022800002600DE03B4BDB6A03F00F0301333A4978
:10229000B1FBF3F302FB03F2026001E0364B036093
:1022A000344B5A68C2F3031235498A5CD2B20468CF
:1022B00024FA02F242605D68C5F3022531494D5DA2
:1022C000EDB222FA05F585605D68C5F3C225495D6A
:1022D000C9B2CA40C2601B6B13F4807F02D12A4B83
:1022E000036117E0234B5B68C3F38133032B11D8E1
:1022F000DFE803F00205080E530803610AE09308C3
:10230000036107E0214BA3FB02139B08036101E07B
:10231000D3080361174B1B6B13F0400F03D148F236
:102320001203436102E04FF400434361114B1B6B06
:1023300013F0030F01D1826119E00E4B1B6B03F008
:102340000303012B01D1846111E00A4B1B6B03F0E5
:102350000303022B03D14FF40043836107E0054BD5
:102360001B6B03F00303032B01D1034B836130BCD0
:10237000704700BF0010024000127A0000093D00C3
:102380000000002010000020809FD500ABAAAAAA60
:1023900021B1054B5A69104358617047024B5A6985
:1023A00022EA0000586170470010024021B1054B3D
:1023B000DA691043D8617047024BDA6922EA0000FB
:1023C000D861704700100240430902D10C4B1B68D2
:1023D0000BE0012B02D10A4B1B6A06E0022B02D153
:1023E000074B5B6A01E0064B5B6B00F01F0023FAB2
:1023F00000F010F0010F01D001207047002070475D
:102400000010024030B589B004460D46036823F041
:1024100001030360426822F440528B681343436017
:10242000036823F4B05323F00C034968EA681143AE
:102430002A690A4313430360826822F440726B697D
:102440001343836001A8FFF7F9FE154B9C4201D1AD
:10245000079A00E0039A236813F4004F06D0520055
:102460002968B2FBF1F301FB132204E02968B2FBF7
:10247000F1F301FB13222968B2EB510F00D30133B2
:10248000226812F4004F06D0C3F3420223F00F0378
:102490001B041B0C13439BB2A38109B030BD00BFCA
:1024A0000038014021B1036843F001030360704725
:1024B000036823F001030360704700BFC1F3080104
:1024C0000185704710B4034601F47F44C9B2B4F5E6
:1024D000407F02D100F1080303E0B4F5007F00D192
:1024E000031D32B11A68012000FA01F1114319608D
:1024F00006E01A68012000FA01F122EA01011960E0
:102500005DF8044B704700BF002100F004B80C4B8D
:102510005B58435004310B480B4B42189A42FFF46E
:10252000F6AF0A4A00F003B8002342F8043B084B18
:102530009A42FFF4F9AF0748804707480047000078
:10254000C83B000800000020800000208000002020
:10255000F8000020691E000881120008FFF7FEBF86
:10256000014B1868704700BF780000200244034602
:10257000934202D003F8011BFAE770470FB40A4BED
:1025800013B51C6824B1A36913B9204600F084FC7C
:1025900005AB2046A168049A019300F02FF802B021
:1025A000BDE8104004B0704778000020936810B573
:1025B000013B002B936005DA9469A34208DBCBB2A0
:1025C0000A2B05D01368581C10601970C8B210BDD2
:1025D000BDE8104000F09CBAF8B505460E4614461A
:1025E000D718BC4208D0284614F8011B3246FFF722
:1025F000DDFF431CF5D100E00020F8BD2DE9F043DC
:102600009DB00D4617460393064618B183690BB972
:1026100000F042FC734B9D4201D1756808E0724B9B
:102620009D4201D1B56803E0704B9D4208BFF5683B
:10263000AB8918070AD52B6943B1002309932023DE
:102640008DF8293030238DF82A3038E0304629467D
:1026500000F0B2FA0028F0D04FF0FF30BEE0039A4D
:10266000111D12680391002A70DB07920134237850
:102670002E2B7DD05E4F21783846032200F0C2FC1D
:1026800030B1C71B4020B840049B0134034304937E
:10269000217858480622671C8DF8281000F0B2FCFB
:1026A000002800F08980544B002B7CD1039B07331A
:1026B00023F0070308330393099B434409933B46E4
:1026C0001C4613F8012B1AB9B4EB07090ED002E02F
:1026D000252AF5D1F8E7304629463A464B46FFF71A
:1026E0007BFF013075D0099B4B4409932378002B65
:1026F0006FD000234FF0FF320493079305920693A7
:102700008DF853301A9304F101093C4F4C4638467A
:102710002178052200F076FC09F10109049B28B11B
:10272000C71B0120B84003430493EEE7D90644BF1A
:1027300020228DF853201A0744BF2B228DF85320F6
:1027400022782A2A8BD0079B214605E0524243F08B
:1027500002030792049389E70C4622780131303A4C
:10276000092A03D80A2000FB0323F5E707937EE735
:1027700063782A2B09D1039B02341A1D1B6803922C
:10278000002BB8BF4FF0FF330BE0611C00230C4659
:1027900022780131303A092A03D80A2000FB0323AA
:1027A000F5E7059366E703AB0093304604A92A4694
:1027B000134BAFF3008007E003AB0093304604A94E
:1027C0002A460F4B00F090F8B0F1FF3F80467FF4AF
:1027D00073AFAB895B063FF53FAF09981DB0BDE80D
:1027E000F08300BF003B0008203B0008403B00088E
:1027F000D23A0008D63A000800000000CC3A00089F
:10280000D92500082DE9F84315461F468A680B694B
:1028100006469A42A8BF13462B6091F843200C4607
:10282000DDF820800AB101332B602368990602D5B8
:102830002B6802332B60236813F006091DD094F82F
:1028400043302268003318BF012392061FD5E118D8
:10285000302081F843005A1C94F84510224402337A
:1028600082F8431013E03046394604F1190201237F
:10287000C047013007D009F10109E2682B68D31A7B
:102880009945F0DBDBE74FF0FF30BDE8F8833046D9
:10289000394604F14302C0470130F4D023682A6866
:1028A00003F00603E168042B08BFC2EB01052369AE
:1028B000A2680CBF25EAE57500259A42C4BFC3EBA8
:1028C0000203ED184FF00009A9450ADA30463946EF
:1028D00004F11A020123C0470130D4D009F10109E3
:1028E000F2E70020BDE8F8832DE9FF470E7E804621
:1028F0006E2E0C4691469A460C9D01F1430000F065
:10290000A58011D8632E22D009D8002E00F0AF8008
:10291000582E40F0BF8081F845607B4A4FE0642E1E
:102920001ED0692E1CD0B5E0732E00F0A48009D80B
:102930006F2E2BD0702E40F0AD800B6843F020033B
:102940000B6038E0752E21D0782E34D0A2E02B68B1
:1029500001F142071A1D1B682A6081F842309DE090
:1029600022682B6812F0800F03D01A1D2A601D68A0
:1029700005E05106F9D51A1D2A60B3F90050002D63
:1029800039DA2D236D4284F8433034E022682B6815
:1029900012F0800F03D01A1D2A601D6804E0520651
:1029A000F9D51A1D2A601D88237E574A6F2B14BF44
:1029B0000A2308231BE07823544A84F8453023680F
:1029C000296813F0800F01F104062E6001D00D6814
:1029D00002E05F06FBD50D88DE0744BF43F020030D
:1029E00023601DB9236823F02003236010230021F6
:1029F00084F8431001E0444A0A236668002EA6606A
:102A000003DB216821F00401216005B96EB104F1F6
:102A10004201B5FBF3F603FB1655555D0F4601F871
:102A200001593546002EF4D100E00746082B0AD1A3
:102A30002368DD0707D5626823699A4203DC3023E7
:102A400007F8013C013FC01B20612CE009682B689E
:102A500011F0800F626904D0191D29601B681A608B
:102A600005E04906F8D5191D29601B681A80002366
:102A70002361074617E02B681A1D2A601F68384635
:102A800000F0B9FB63682061984288BF2361236925
:102A9000636005E004F1420784F84260012323618A
:102AA000002384F84330CDF800A04046214603AA15
:102AB0004B46FFF7A7FE013002D14FF0FF301FE079
:102AC000404649463A462369D0470130F5D023684D
:102AD0009B0705D4E068039B9842B8BF18460FE0F7
:102AE0000025E268039BD31A9D42F3DA404649462B
:102AF00004F119020123D0470130DED00135F0E79F
:102B000004B0BDE8F08700BFDD3A0008EE3A0008E7
:102B100070B50E461446054618B183690BB900F02E
:102B2000BBF9224B9C4201D16C6808E0204B9C42CF
:102B300001D1AC6803E01F4B9C4208BFEC68A3695D
:102B4000A360A3891A0709D523693BB123692068CB
:102B5000F6B2C01A636998420FDB08E028462146A6
:102B600000F02AF80028F1D04FF0FF3070BD284661
:102B7000214600F013F90028F6D1A3680130013B8B
:102B8000A36023685A1C22601E706369984204D0B7
:102B9000A389DB0707D50A2E05D12846214600F078
:102BA000FDF80028E0D1304670BD00BF003B0008B2
:102BB000203B0008403B0008324B70B51D680646BC
:102BC0000C4625B1AB6913B9284600F065F92E4BC8
:102BD0009C4201D16C6808E02C4B9C4201D1AC684E
:102BE00003E02B4B9C4208BFEC68A28993B2190703
:102BF00020D4DD0605D4092342F040023360A281CF
:102C00003BE0580712D5616B41B104F1440399428E
:102C100002D0304600F004FA00236363A38923F056
:102C20002403A3810023636023692360A38943F005
:102C30000803A38123694BB9A38903F42073B3F577
:102C4000007F03D03046214600F090F9A38913F0AD
:102C5000010205D00022A26062695242A26103E033
:102C6000990758BF6269A26022694AB903F08000DF
:102C700080B230B143F04003A3814FF0FF3070BD0C
:102C8000002070BD78000020003B0008203B0008B9
:102C9000403B00088A892DE9F041054610070C46A3
:102CA00057D44B68002B02DC0B6C002B18DDE66A56
:102CB000B6B102F48052002392B22F682B600AB1A1
:102CC000626D10E0216A28460123B047411C02468C
:102CD00009D12B683BB11D2B01D0162B46D12F609B
:102CE0000020BDE8F081A3895B0705D56368D21A8F
:102CF000636B0BB1236CD21AE66A2846216A002363
:102D0000B047461CA28905D12B681BB11D2B01D0F1
:102D1000162B19D1002363602369D104236004D5E5
:102D2000421C01D12B6803B96065616B2F600029DB
:102D3000D6D004F14403994202D0284600F070F93D
:102D400000206063BDE8F08142F04002A281BDE84E
:102D5000F0810E69002EC3D00B680E60C6EB03082D
:102D600093070CBF4B6900238B6012E0A3894FF0DF
:102D7000FF3043F04003A381BDE8F081A76A2846F5
:102D8000216A32464346B8470028EFDD0644C0EBCF
:102D90000808B8F1000FF1DCA2E7000038B50B69B4
:102DA00005460C46DBB118B183690BB900F074F825
:102DB0000C4B9C4201D16C6808E00B4B9C4201D14A
:102DC000AC6803E0094B9C4208BFEC68B4F90C30D6
:102DD0002BB128462146BDE83840FFF75BBF0020F5
:102DE00038BD00BF003B0008203B0008403B000806
:102DF000F8B5074600F1480494B1A5686668013E3D
:102E00000CD4AB89012B07D9B5F90E30013303D0AF
:102E100038462946FFF7C2FF6835F0E72468EBE73C
:102E2000F8BD0000002310B50446036043608360D2
:102E300081814366C28103614361836119465C30CD
:102E40000822FFF793FB054B24626362044BA362E5
:102E5000044BE362044B236310BD00BF71310008D3
:102E600093310008CB310008EF31000870B54B1EDC
:102E700068255D430E4605F1740100F015F904461E
:102E800040B1002180E842000C30A06005F16802EA
:102E9000FFF76CFB204670BD836910B5044633BB59
:102EA0008364C3640365124B124A1B6882629842B2
:102EB00004BF0123836100F01FF86060204600F02A
:102EC0001BF8A060204600F017F80421E060002203
:102ED0006068FFF7A7FFA06809210122FFF7A2FFA2
:102EE000E06812210222FFF79DFF0123A36110BDBC
:102EF000C83A0008F12D0008F8B51B4B07461E68BC
:102F0000B36913B93046FFF7C7FF4836B468736832
:102F1000013B04D4B4F90C5075B16834F8E7336858
:102F20002BB938460421FFF7A1FF306008B136689D
:102F3000ECE70C233B60F8BD4FF6FF73E381012300
:102F4000A38165662560A560656025616561A561F1
:102F500004F15C0029460822FFF708FB6563A563BE
:102F6000A564E5642046F8BDC83A0008F0B58B8931
:102F700091B09E0705460C4625D4B1F90E100029E4
:102F800008DAA389002713F0800F14BF40264FF4FE
:102F900080660DE001AA00F059F90028F1DB029FDC
:102FA0004FF4806607F47047B7F500514F424F4128
:102FB0002846314600F078F860B9A3899A051DD4F7
:102FC00043F00203A38104F147032360236101233B
:102FD000636113E00A4BAB62A389206043F0800376
:102FE000A381206166614FB12846B4F90E1000F04C
:102FF0003FF918B1A38943F00103A38111B0F0BDDB
:10300000F12D000810B5C9B202449042034605D024
:103010001C7801308C42F8D1184610BD002010BD3C
:1030200030B500293CD051F8042C0B1F1D49002A53
:10303000B8BF9B180A680C4612B95A600B6030BDC5
:1030400093420DD219685818904203D15A5811442E
:10305000426819605A60236030BD994203D80A461D
:1030600051680029F9D1146815199D420AD11B68CD
:103070002344D0188842136012D1086803441360B7
:103080004B680CE002D90C23036030BD18681C1893
:103090008C4203D10C684968204418605960536021
:1030A00030BD00BFB000002070B5CD1C25F0030579
:1030B00008350C2D38BF0C25002D06463FDB8D4210
:1030C0003DD3214B1C6818462146A1B10B685B1B00
:1030D0000ED40B2B03D90B60CC18CD501FE08C42C3
:1030E00002D1626802601AE04B6863600C4616E029
:1030F0000C464968E9E7154C23681BB9304600F0D7
:1031000027F820602946304600F022F8431C01468B
:1031100015D0C41C24F0030484420AD1256004F1B4
:103120000B00231D20F00700C31A0BD05A42E250B7
:1031300070BD3046611A00F00BF80130EED10C235F
:103140003360002070BD00BFB0000020AC00002044
:1031500038B5064C0023054608462360FEF70AF8FA
:10316000431C02D1236803B12B6038BDF40000205A
:1031700010B50C46B1F90E1000F09CF8002803DBE6
:10318000636D0344636510BDA38923F48053A38159
:1031900010BD2DE9F0411D468B890746DB050C4625
:1031A000164605D5B1F90E100022022300F070F882
:1031B000A389384623F48053A381B4F90E10324614
:1031C0002B46BDE8F04100F01FB810B50C46B1F930
:1031D0000E1000F05DF8431CA38903D123F4805343
:1031E000A38110BD43F48053A381606510BDB1F984
:1031F0000E1000F01BB8034613F8012B002AFBD178
:10320000181A01387047000038B5074C05460020F1
:103210002060084611461A46FDF79EFF431C02D166
:10322000236803B12B6038BDF400002038B5064C8C
:103230000023054608462360FDF7B8FF431C02D172
:10324000236803B12B6038BDF400002038B5074C6B
:1032500000230546084611462360FDF7ABFF431CDB
:1032600002D1236803B12B6038BD00BFF4000020F9
:1032700038B5064C0023054608462360FDF7A0FF3D
:10328000431C02D1236803B12B6038BDF400002039
:1032900038B5074C054600202060084611461A46FE
:1032A000FDF790FF431C02D1236803B12B6038BDAA
:1032B000F400002038B5074C054600202060084681
:1032C00011461A46FDF738FF431C02D1236803B1AB
:1032D0002B6038BDF40000202DE9F04FB64B21F0F3
:1032E00000469E4283B004460D4689460FDDB34931
:1032F0008E4200F3B38000F0AE80B9F1000F40F3CE
:10330000EF8091A1D1E9000103B0BDE8F08FAC4B93
:103310009E4200F3BD80A3F1DE739E4240F3A7807E
:103320004FF0FF3C22462B4620462946CDF804C0EC
:10333000FDF7D0F802460B4682468B46FDF7CAF8E9
:1033400083A3D3E9002306460F46FDF7C3F882A303
:10335000D3E90023FCF70CFF32463B46FDF7BAF8F1
:103360007FA3D3E90023FCF703FF32463B46FDF77A
:10337000B1F87DA3D3E90023FCF7FAFE32463B46C1
:10338000FDF7A8F87AA3D3E90023FCF7F1FE324653
:103390003B46FDF79FF878A3D3E90023FCF7E8FE4E
:1033A00052465B46FDF796F875A3D3E900238246A3
:1033B0008B4630463946FDF78DF873A3D3E90023D9
:1033C000FCF7D4FE32463B46FDF784F870A3D3E900
:1033D0000023FCF7CBFE32463B46FDF77BF86EA39D
:1033E000D3E90023FCF7C2FE32463B46FDF772F8F4
:1033F0006BA3D3E90023FCF7B9FE32463B46FDF749
:1034000069F8DDF804C00246BCF1FF3F0B466BD003
:10341000504659464FEACC06FCF7AAFE22462B46F8
:10342000FDF758F8674F684B37441E44D6E9002330
:10343000FCF79CFE22462B46FCF798FE02460B4604
:10344000D7E90001FCF792FEB9F1000F0CDA01F1A7
:103450000045294608E000283FF44FAF20462946A2
:1034600022462B46FCF784FE03B0BDE8F08F4EA346
:10347000D3E90023FCF77CFE0022544BFDF7BAFA97
:1034800000283FF44DAF2046294603B0BDE8F08F39
:1034900000F0CAF84E4B04469E420D4633DCA3F5BD
:1034A00050239E4200F3A58002460B46FCF760FEC7
:1034B0000022464BFCF75AFE002206460F462046E5
:1034C00029464FF08043FCF753FE02460B46304638
:1034D0003946FDF729F94FF0000C04460D4621E767
:1034E00033A1D1E90001BFE750465946FCF740FE41
:1034F00022462B46FCF7EEFF02460B4620462946A5
:10350000FCF734FEB0E7334B9E4267DC0022324BBF
:10351000FCF72CFE002206460F46204629462E4B7D
:10352000FCF7D8FF0022294BFCF722FE02460B468F
:1035300030463946FDF7F8F84FF0020C04460D46C8
:10354000F0E600BFAFF30080182D4454FB21F93F93
:1035500011DA22E33AAD903FEB0D76244B7BA93F85
:10356000513DD0A0660DB13F6E204CC5CD45B73F53
:10357000FF8300922449C23F0D5555555555D53FFF
:103580002F6C6A2C44B4A2BF9AFDDE522DDEAD3FF3
:103590006D9A74AFF2B0B33F711623FEC671BC3F93
:1035A000C4EB98999999C93F9C7500883CE4377E93
:1035B000182D4454FB21F9BFFFFF0F440000F07F9A
:1035C000FFFFDB3F803B0008603B00080000F03F4E
:1035D000FFFFF23FFF7F03400000F83F02460B462B
:1035E00000200F49FDF7A0F84FF0030C04460D46EC
:1035F00098E600220B4BFCF7B9FD002206460F4669
:1036000020462946074BFCF7B3FD02460B463046E1
:103610003946FDF789F84FF0010C04460D4681E666
:103620000000F0BF0000F03F21F00041704700BFF4
:1036300000F056B82DE9F0478AB004460D4600F078
:1036400047F9DFF898A006469AF900300F46013393
:103650000FD02046294600F0FBF950B14FF000088A
:103660004FF0000942464B4620462946FDF7A4F993
:1036700020B9304639460AB0BDE8F08716499AF8B5
:10368000006001220023CDE90445CDE90245019106
:103690000092089366B9CDE90689684600F000FA01
:1036A00080B1089B9BB9DDE906010AB0BDE8F0874F
:1036B0004046494642464B46FDF736F8022ECDE9D4
:1036C0000601EAD1FEF74CFF21230360E9E7FEF78C
:1036D00047FF089B0360E6E7A03B00087C00002052
:1036E0002DE9F047C2F1000949EA020923F0004838
:1036F000DFF8D4C148EAD97982B0E14514461D46C5
:10370000CDE900010F4647D8C0F1000A4AEA000A95
:1037100021F0004949EADA7AE2453DD803F1404C0C
:103720000CF5801C5CEA020C4CD04FEAA37A0AF03C
:10373000020A4AEAD17A59EA000136D058EA04016D
:103740003AD06149884551D05F49894534D0C8EBAA
:1037500009084FEA2858B8F13C0F43DC002D70DB14
:10376000DDE90001FCF7E0FFFFF75EFFFFF7B4FDC6
:10377000BAF1010F62D0BAF1020F52D0BAF1000FC4
:1037800010D03FA3D3E90023FCF7F0FC3EA3D3E91C
:103790000023FCF7EBFC05E010461946DDE90023A9
:1037A000FCF7E6FC02B0BDE8F087BAF1030FC5D81C
:1037B000DFE80AF00D0D1410002F2EDB34A1D1E943
:1037C0000001EFE702B0BDE8F047FFF785BDDDE996
:1037D0000001E7E730A1D1E90001E3E72AA1D1E93F
:1037E0000001DFE72AA1D1E90001C1E7C1452ED0E0
:1037F000BAF1030FA8D801A151F82AF01538000832
:103800000D380008DD370008D537000800204FF0DC
:103810000041C7E700200021C4E721A1D1E9000150
:10382000C0E717A3D3E90023FCF7A0FC02460B4630
:1038300015A1D1E90001FCF799FCB3E701F10041C2
:10384000B0E718F13C0F8BDA0020002190E7BAF1C5
:10385000030FB1D8DFE80AF006020E0A12A1D1E97F
:1038600000019FE712A1D1E900019BE712A1D1E974
:10387000000197E712A1D1E9000193E7AFF30080BF
:10388000075C143326A6A13C182D4454FB210940A3
:10389000182D4454FB21F93F182D4454FB2109C035
:1038A000182D4454FB21F9BF182D4454FB21E9BFC6
:1038B000182D4454FB21E93FD221337F7CD902C02B
:1038C000D221337F7CD902400000F07FAFF300802B
:1038D00021F0004C2DE9F8434FEA1C5CDFF86C81C5
:1038E0004FEA0C5CC44506460F460B46024600F004
:1038F0008F8000296FDD0F1578D0A7F2FF37C3F353
:103900001303F90743F4801360D4D10F4FF0000C78
:1039100001EB43037F105200654616204FF400115F
:103920006C189C424FEAD2764FEA420202DC1B1B23
:1039300065188C44013806EB43034FEA5101EFD17F
:10394000804620264FF0004109E023D0D40F013EED
:103950004FEA510104EB43034FEA42021ED0AB424F
:1039600001EB0804F1DD04F00049B9F1004F04EB6C
:10397000010809D0A9465B1B944288BF03F1FF33BD
:10398000121B08444D46E1E7B8F1000FF2DB05F1E8
:103990000109F0E79442E6D91D46D7E71A4304D05F
:1039A000431C41D000F00103184446084FEA6C0361
:1039B0001CF0010F03F17F5303F5001318BF46F00D
:1039C000004603EB07513046BDE8F883D10F01EB09
:1039D0004303520099E721F00043034322D051BB37
:1039E0000F46D30A153F5205002BFAD013F480116D
:1039F0001DD15B00D80201F10101FAD5C1F101002E
:103A0000C1F1200422FA04F407448A40234374E7F6
:103A100002460B46FCF75EFD32463B46FCF7A8FB30
:103A2000BDE8F883BDE8F8830CF1010CBEE7202463
:103A300001200021E6E702460B46FCF797FB024611
:103A40000B46FCF771FEBDE8F88300BF0000F07F75
:103A500031F0004310B408D00F4AA3F5801494420B
:103A60000AD804205DF8044B704700280CBF0220E0
:103A700003205DF8044B7047B3F5801F01D203208B
:103A8000F7E7064A934201D00020F2E7D0F10100A7
:103A900038BF0020EDE700BFFFFFDF7F0000F07FB1
:103AA000002070474F74746572210A0D00000000F9
:103AB0004552524F520A0D004552524F523A204938
:103AC0003243200A0D00430018000020232D302B24
:103AD0002000686C4C00656667454647003031320F
:103AE0003334353637383941424344454600303166
:103AF00032333435363738396162636465660000C5
:103B000000000000000000000000000000000000B5
:103B100000000000000000000000000000000000A5
:103B20000000000000000000000000000000000095
:103B30000000000000000000000000000000000085
:103B40000000000000000000000000000000000075
:103B50000000000000000000000000000000000065
:103B6000E2652F227F2B7A3C075C143326A6813C2A
:103B7000BDCBF07A8807703C075C143326A6913CD5
:103B80004FBB610567ACDD3F182D4454FB21E93F75
:103B90009BF681D20B73EF3F182D4454FB21F93F64
:103BA0007371727400000000F8B500BFF8BC08BC67
:103BB0009E467047F8B500BFF8BC08BC9E467047EB
:043BC00035010008C3
:043BC40011010008E3
:103BC80000000000000000000102030406070809C5
:103BD800000000000102030400000000003B000890
:103BE800203B0008403B00080000000000000000E7
:103BF8000000000000000000C63A000800000000B5
:103C080000000000000000000000000000000000AC
:103C1800000000000000000000000000000000009C
:103C2800000000000000000000000000000000008C
:103C38000000000000000000180000200100000043
:0400000508002509C1
:00000001FF
